:020000040800F2
:10000000E8370120550200085D0200085F02000881
:100010006102000863020008650200080000000099
:100020000000000000000000000000009D0100082A
:100030006902000800000000F1010008911F00089B
:100040006F0200086F0200086F0200086F020008CC
:100050006F0200086F0200086F0200086F020008BC
:100060006F0200086F020008D50F00086F02000839
:100070006F0200086F0200086F0200086F0200089C
:100080006F0200086F0200086F0200086F0200088C
:100090006F0200086F0200086F02000819100008C4
:1000A0006F0200086F0200086F0200086F0200086C
:1000B0006F0200086F020008A12000086F0200080C
:1000C0006F0200086F0200086F0200086F0200084C
:1000D0006F020008792700086D2B00086F020008E6
:1000E0007D0F00086F0200086F0200086F02000811
:1000F0006F0200086F0200086F0200086F0200081C
:100100006F0200086F020008492200086F02000811
:100110006F0200086F0200086F0200086F020008FB
:100120006F0200086F0200086F0200086F020008EB
:100130006F0200086F0200086F0200086F020008DB
:100140006F0200086F0200086F0200086F020008CB
:100150006F0200086F0200086F0200086F020008BB
:100160006F0200086F0200086F0200086F020008AB
:100170006F0200086F0200086F0200086F0200089B
:100180006F0200086F020008DFF80CD000F0CCFA14
:100190000048004745390008E83701202A4B196814
:1001A0000868B0E8F04F80F30988BFF36F8F4FF015
:1001B000000080F3118870470000000006480068C6
:1001C000006880F3088862B661B6BFF34F8FBFF353
:1001D0006F8F00DF00BF00BF08ED00E0DFF80C000C
:1001E000016841F470010160704700BF88ED00E0D4
:1001F000EFF30980BFF36F8F134B1A681EF0100FD7
:1002000008BF20ED108A20E9F04F106008B44FF0CD
:10021000500080F31188BFF34F8FBFF36F8F04F04E
:1002200091FD4FF0000080F3118808BC1968086840
:10023000B0E8F04F1EF0100F08BFB0EC108A80F34A
:100240000988BFF36F8F70473C030020EFF30580F0
:10025000704700000648804706480047FEE7FEE773
:10026000FEE7FEE7FEE7FEE7FEE7FEE7FEE7FEE766
:10027000A11F00088901000840EA01039B0703D081
:1002800009E008C9121F08C0042AFAD203E011F8D5
:10029000013B00F8013B521EF9D27047D2B201E097
:1002A00000F8012B491EFBD270470022F6E710B57B
:1002B00013460A4604461946FFF7F0FF204610BDD4
:1002C000421C10F8011B0029FBD1801A70472DE950
:1002D000F0410E460546002400E0641C285D00F055
:1002E00065F80746305D00F061F8381A02D1295DE3
:1002F0000029F2D1BDE8F08100F0004230F000406A
:100300000AD0C10D01F56071C0F3160042EA015137
:10031000C20840071143704700200146704730B5BE
:100320000B46014600202022012409E021FA02F5B3
:100330009D4205D303FA02F5491B04FA02F528444D
:10034000151EA2F10102F1DC30BD2DE9F05F05467A
:10035000002092469B4688460646814640241BE084
:10036000284641464746224600F0FFF953465A4682
:10037000C01A914110D311461846224600F0E6F902
:100380002D1A67EB01084F4622460120002100F09C
:10039000DDF917EB00094E41201EA4F10104DFDC5A
:1003A000484631462A464346BDE8F09FA0F1410148
:1003B000192900D8203070472DE9FE4F804681EA88
:1003C0000300C00F0C46009021F0004123F00045CF
:1003D000B8EB0200A94105D24046214690461C4692
:1003E0000B46024623F00040104347D0270DC7F3C9
:1003F0000A00C3F30A510290401A019040286BDAB8
:10040000C3F3130040F4801B0098924620B10023F0
:10041000D2EB030A63EB0B0B01985946C0F1400283
:10042000504600F093F906460D4650465946019A4B
:1004300000F0ABF910EB08006141002487EA11528B
:1004400084EAE7731A4340D0009A62B3019A012A02
:100450004FEA075215DC001B61EB02014FF000422E
:1004600002EA0752CDE90042001C41F580113246F4
:100470002B4600F0ABF903B0BDE8F08F40462146B3
:10048000F9E7001B61EB0201001C41F58013001825
:100490005B412018A2F5001747EB030140EAD57035
:1004A000B6196D4111E06D084FEA360645EAC07590
:1004B0004FEA0752001B61EB0201001C41F580115D
:1004C00049084FEA30000019514132462B4603B02B
:1004D000BDE8F04F00F06BB9009801224000002306
:1004E000D0EB020263EBE073009821464FEAE07420
:1004F000B8EB000061EB0401E9E783F000435BE740
:1005000081F0004158E72DE9FE4F81EA030404F031
:10051000004421F0004100944FF0000B23F0004311
:1005200050EA01045ED052EA03045BD0C3F30A54DC
:10053000C1F30A552C44A4F2F3340194A0FB0254F5
:10054000C1F3130141F48011C3F3130343F4801387
:1005500001FB024400FB034E840A970A44EA8154DB
:1005600047EA8357A4FB076802958D0A05FB0785B8
:100570004FEA932C04FB0C542705029D4FEA0658C2
:1005800047EA1637B5EB08056EEB070C870E920E9F
:1005900047EA811742EA8312A7FB0201B6EB0B017F
:1005A00064EB00042B0D43EA0C335E1844EB1C5043
:1005B000DA465146E7FB0201C5F313044FEA0B3359
:1005C00043EA14534FEA0432019C43EA0603A4F1C0
:1005D0000C040294009CCDE900B400F0F7F803B0DD
:1005E000BDE8F08F00200146F9E72DE9F04D81EAE2
:1005F000030404F0004B21F0004514464FF0000ABC
:1006000023F0004150EA050220D054EA01021DD037
:10061000C5F30A570246C5F31303C1F31300C1F330
:100620000A5640F4801543F48013A7EB0608101B0C
:10063000D64608F2FD3873EB050002D308F1010835
:1006400001E092185B41B8F1000F03DA0020014687
:10065000BDE8F08D00204FF48011064684460EE080
:10066000171B73EB050705D3121B63EB050306434A
:100670004CEA010C49084FEA300092185B4150EAFD
:100680000107EDD152EA030012D082EA040083EAA6
:100690000501084305D0101BAB4106D201220023FF
:1006A00006E000224FF0004302E06FF00102531019
:1006B0001AEB06004CEB085110EB0A0041EB0B0162
:1006C000BDE8F04D00F073B8C1F30A52C1F3130155
:1006D00040F2FF3341F480119A4202DA00200146D1
:1006E000704740F233439A42A2F2334202DC524254
:1006F00000F03BB800F02AB830B5041E71F10004D8
:1007000004DB4FF00044404264EB0101141E73F11E
:10071000000405DB1C464FF00043524263EB040328
:10072000994208BF904230BD064C074D06E0E06894
:1007300040F0010394E8070098471034AC42F6D328
:10074000FFF726FD2460000844600008202A04DB2F
:10075000203A00FA02F1002070479140C2F12003D4
:1007600020FA03F3194390407047202A04DB203A13
:1007700021FA02F00021704721FA02F3D040C2F1C1
:1007800020029140084319467047202A06DBCB1708
:10079000203A41FA02F043EAE07306E041FA02F33C
:1007A000D040C2F12002914008431946704710B56D
:1007B000141E73F1000408DA401C41F10001921884
:1007C0005B411A4301D120F0010010BD2DE9F04D2D
:1007D00092469B4611B1B1FA81F202E0B0FA80F282
:1007E00020329046FFF7B2FF04460F4640EA0A0067
:1007F00041EA0B0153465A46084313D0114653EAC7
:10080000010019D0C8F140025046FFF7AEFF05467F
:100810000E46504659464246FFF798FF084305D01A
:10082000012004E020463946BDE8F08D0020054354
:1008300046EAE0762C4337430A986305E40AA0EBC6
:1008400008000022FD0A44EA47540A3002D500207D
:100850000146E9E7010510196941DDE9084500197C
:100860006941BDE8F04DA2E770B58D1810F8014B55
:1008700014F0030201D110F8012B231106D110F856
:10088000013B03E010F8016B01F8016B521EF9D136
:10089000ABB110F8012B04F00C048A1A0C2C03D015
:1008A000A2EB84129B1C08E010F8014BA2EB04227F
:1008B000F8E712F8014B01F8014B5B1EF9D5A9428C
:1008C000D4D3002070BD000000B58FB00121080214
:1008D00001F020FA0121084601F0ECF90121042081
:1008E00001F0E8F901200D9003208DF83800002078
:1008F0008DF83B000DA9174800F0CAFC01200B90B1
:1009000003208DF8300000208DF833000BA9124829
:1009100000F0BEFC0020099007904FF48030089052
:1009200000200A9007A800F027F8002001908DF819
:1009300008008DF809000590039001208DF818003B
:1009400001A9064800F03EF80121044800F008F82B
:100950000FB000BD0000024000080240002001402E
:1009600021B1826842F00102826003E0826822F0D5
:1009700001028260704700000021084A1168084A9D
:100980001140D0E900231A4383681A43C3681A430D
:100990001143044AC2F804137047000004230140C5
:1009A000E030FCFF002001400146C86C80B2704777
:1009B0000246002013680B400BB1012000E000202C
:1009C0007047000030B50246002000235068104CEC
:1009D00020400D790C6844EA05242043506090685B
:1009E0000C4C2040D1E903542C438D682C434D79A5
:1009F00044EA450420439060D06A20F470000C7DE6
:100A0000641EE4B2234340EA0350D06230BD0000CC
:100A1000FFFEFFFCFDF7FFC0F0B504460D460020C9
:100A20000021092D11DDE068A5F10A0606EB460755
:100A3000072606FA07F18843A5F10A0606EB4606E3
:100A400003FA06F10843E0600CE0206905EB450776
:100A5000072606FA07F1884305EB450603FA06F177
:100A600008432061072A0FDA606B561E06EB8607E3
:100A70001F2606FA07F18843561E06EB860605FA7E
:100A800006F10843606322E00D2A0FDA206BD61FBF
:100A900006EB86071F2606FA07F18843D61F06EBEA
:100AA000860605FA06F10843206310E0E06AA2F129
:100AB0000D0606EB86071F2606FA07F18843A2F10A
:100AC0000D0606EB860605FA06F10843E062F0BD66
:100AD000816841F080418160704770B5044600250F
:100AE00000F07CFDA02000F047FD00F09DFC18B157
:100AF00000F08EFD012070BD204600F03DFD00F0AD
:100B000093FC18B100F084FD0120F4E700F066FDCD
:100B1000A12000F031FD00F087FC18B100F078FD55
:100B20000120E8E700F0A8FC0546012000F0F8FCF1
:100B300000F06EFD2846DEE770B505460C4600F075
:100B40004DFDA02000F018FD00F06EFC18B100F083
:100B50005FFD012070BD284600F00EFD00F064FC32
:100B600018B100F055FD0120F4E7204600F004FD27
:100B700000F05AFC18B100F04BFD0120EAE700F04C
:100B800047FD0020E6E710B504460AE0642000F0C7
:100B900033FF00F033F8642000F02EFF00F024F85B
:100BA000641E002CF2D110BD1CB50121022001F001
:100BB00081F84FF48060009001208DF8040000203F
:100BC0008DF8060001208DF8070000208DF8050043
:100BD0006946044800F05CFB4FF48061014800F076
:100BE000CBFB1CBD0004024010B500224FF4806115
:100BF000014800F0C9FB10BD0004024010B50122FD
:100C00009102024800F0C0FB10BD00000004024049
:100C10002DED048BC6B0BAE05D48006800287CD09A
:100C20005C4B5A1E5C49481E00F044F90746FFF72A
:100C30004BFE0521002000F0ACFB0646B6F52F7FE9
:100C400005DC4FF48071554800F096FB04E04FF44A
:100C50008071524800F092FB05210A2000F099FBB8
:100C6000044600EE104AF8EE400A9FED4D1A80EE61
:100C7000810ADFED4C0A20EE208A002F7FD18021EF
:100C800026A8FFF712FB18EE100AFFF735FB41EC20
:100C9000190B04968DED029B3F48401E40783E495B
:100CA000491E0978CDE900103A48401E4378027881
:100CB0003DA126A802F038F926A941A002F024F9A6
:100CC0003448401E00781C280DDB642000F0C8FA70
:100CD00001203C49086040F6B83003F087FE002050
:100CE0003849086002E0002000F0BAFA802106A826
:100CF000FFF7DBFA2848401E40782749491E09784B
:100D0000CDE900102348401E437802782EA106A8A2
:100D100002F00AF9002500BF09E034E000BF06AA8E
:100D2000515DE8B2FFF708FF0028F8D16D1C06A856
:100D3000FFF7C6FAA842F1D81648401E4378027859
:100D400024A1264802F0F0F81348401E43780278A8
:100D500020A1234802F0E8F8324622A1224802F0FE
:100D6000E3F818EE100AFFF7C7FA41EC190B53EC41
:100D7000192B1EA11E4802F0D7F803E0FFE71DA0C3
:100D800002F0C2F800BF41F2883003F02FFE43E7C3
:100D90002000002017000020190000200010024051
:100DA000000080453333534025642E2564202025E0
:100DB000642E2564202025662020256420200A003A
:100DC000257300002400002025642E25642025645E
:100DD0002E25640025642E2564000000B403002045
:100DE0003404002025640000B40400202566560069
:100DF00034050020444854313120D2ECB3A30D0A0D
:100E0000000000001CB50121084600F053FF01203E
:100E10008DF804000820009001208DF806000020C5
:100E20008DF807006946024800F032FA1CBD000048
:100E3000000002401CB501208DF80400082000903D
:100E400001208DF8060000208DF807006946024851
:100E500000F01EFA1CBD00000000024070B5002525
:100E600022E06006040E00BF0821114800F07BFA62
:100E70000028F9D100BF08210D4800F074FA0028BD
:100E8000F9D008210A4800F06EFA10B11E2002F0D5
:100E9000EBFC0821064800F066FA10B144F00104AA
:100EA00001E004F0FE046D1C082DDADB204670BD65
:100EB000000002402DE9F04105460E4617469846CF
:100EC00000202B490860FFF7B5FF0821294800F0F2
:100ED00053FA142002F0BCFC0821264800F04EFA18
:100EE0001E2002F0C1FC00BF0821224800F03BFA9E
:100EF0000028F9D100BF08211E4800F034FA00286C
:100F0000F9D000201A49086000BF0821194800F0F4
:100F10002AFA0028F9D1002404E0FFF79FFF1649C0
:100F20000855641C052CF8DBFFF784FF1248007895
:100F30001149497808441049897808440E49C9780C
:100F400008440D49097988420FD10B480078287070
:100F50000948407830700848807838700648C07872
:100F600088F800000020BDE8F0810120FBE70000C8
:100F700058000020000002405000002010B5FFF78C
:100F80003DFE142002F064FCFFF72EFE002000F06E
:100F900085FD0CA20321232000F0D4FD00200B4985
:100FA00008604FF480610A4800F0E8F94FF47A7065
:100FB00002F04EFC002000F071FD4FF4005000F0F4
:100FC000FFF810BD42796520427965001C000020C1
:100FD0000010024010B5FFF711FE142002F038FC9B
:100FE000FFF702FE002000F059FD06A203210F20AA
:100FF00000F0A8FD012007490860102000F0E0F88B
:1010000010BD000057656C636F6D6520686F6D657E
:10101000000000001C00002010B5C0B02021504886
:1010200000F0A1F9002849D1FFF7E8FD142002F0F3
:101030000FFCFFF7D9FD4B480068012803D10020C1
:101040004849086002E0012046490860002000F09D
:1010500025FD45A20021084600F074FD44A20221AE
:10106000002000F06FFD44A20421002000F06AFD82
:1010700043A20621002000F065FD434A00213220F2
:1010800000F060FD414A00215A2000F036FD404A40
:101090000221322000F056FD3EA202215A2000F02B
:1010A00051FD3D4A0421322000F04CFD3B4A06210F
:1010B000322000F047FD202000F082F8402128482F
:1010C00000F051F9002848D1FFF798FD142002F0F4
:1010D000BFFBFFF789FD802120A8FFF7E6F88021FC
:1010E0006846FFF7E2F800240BE0E0B2FFF7F5FCFA
:1010F00020A90855611DC8B2FFF7EFFC0DF80400E8
:10110000641C052CF1DB002000F0C8FC24A20021A7
:10111000084600F017FD26A203210A2000F012FD68
:1011200025A205210A2000F00DFD20AA032132206E
:1011300000F008FD6A460521322000F003FD15A2EB
:101140000521642000F0FEFC104A0321642000F019
:10115000D4FC402000F034F800BF40B010BD0000C7
:10116000001002402000002074656D70203A0000DD
:1011700068756D69203A00006C696768743A000010
:10118000706F74656E3A0000B4030020FC0200200A
:101190003404002025000000B404002034050020A1
:1011A0004C617374205265636F72643A00000000F2
:1011B00074656D703A00000068756D693A00000052
:1011C0000149086070470000143C01400021234998
:1011D0008279002A3AD00A46126803689A430B467D
:1011E0001A600A1D126803689A430B1D1A6002797F
:1011F00011440A6803681A430A60184A08321268E0
:1012000003689A43154B08331A601A1D1268036865
:101210009A43124B0C331A604279102A0ED11A1FCE
:10122000126803681A430D4B08331A601A1D1268BE
:1012300003681A43094B0C331A600DE007494279E1
:1012400011440A6803681A430A6005E002791144F0
:101250000A6803689A430A6070470000003C014036
:1012600010B504462146034801F0E9F9012002F0D7
:10127000EFFA10BD0018004010B50121034801F03D
:1012800002F8012002F0E4FA10BD0000001800404E
:10129000F0B50A4600210023002400BF3DE00125EF
:1012A00005FA01F3156805EA03049C4234D1056888
:1012B0004F000326BE40B543056015794E00B5408A
:1012C0000668354305601579012D02D01579022D88
:1012D00016D185684F000326BE40B5438560557919
:1012E0004E00B540866835438560456801268E40CE
:1012F000B5434560456896798E40B6B23543456042
:10130000C5684F000326BE40B543C560D5794E0081
:10131000B540C6683543C560491C1029BFD3F0BD30
:10132000F0B5002300244D07ED0E02FA05F3CE10B0
:1013300000F1200555F826504E07F70E0F26BE4047
:10134000B543CF1000F1200646F82750CE1000F12B
:10135000200555F8265045EA0304CE1000F120057B
:1013600045F82640F0BD0246002013690B400BB142
:10137000012000E0002070474183704701837047DF
:1013800042694A40426170470AB1018300E04183EB
:1013900070472DE9F04107460C460025002600BFA6
:1013A00008E0384600F00EF8284485B2052002F027
:1013B0004FFA761CA642F4DB95FBF4F080B2BDE850
:1013C000F081000010B50446E1B20723012208486D
:1013D000FFF722FB0648FFF77BFB00BF0221044812
:1013E000FFF7E6FA0028F9D00148FFF7DDFA10BD53
:1013F000002001401CB50121022000F05BFC01200F
:101400008DF80400C020009001208DF80600002017
:101410008DF807008DF8050069460248FFF738FF90
:101420001CBD00000004024010B540211148FFF728
:10143000A3FF012002F018FA80210E48FFF79EFF5B
:10144000012002F011FA40210A48FFF797FF01201E
:1014500002F00AFA80210748FFF785FF08B1012052
:1014600010BD40210348FFF787FF012002F0FCF97F
:101470000020F5E70004024070B500F037F80024C2
:10148000002500BF29E06006040E40211648FFF742
:1014900073FF012002F0E8F980211348FFF76EFF87
:1014A000012002F0E1F940210F48FFF767FF01201A
:1014B00002F0DAF980210C48FFF755FF10B144F033
:1014C000010401E004F0FE0440210748FFF754FF47
:1014D000042002F0C9F9681CC5B2082DD3DB00F066
:1014E00011F8204670BD0000000402401CB5002029
:1014F0008DF8040069460248FFF7CAFE1CBD0000D3
:10150000000402401CB501208DF804008DF806008F
:1015100069460248FFF7BCFE1CBD00000004024003
:1015200010B5044640211348FFF726FF012002F0C2
:101530009BF9012C07D180210E48FFF71FFF0120E6
:1015400002F092F906E080210A48FFF715FF01201A
:1015500002F08AF940210748FFF710FF012002F04E
:1015600083F940210348FFF707FF022002F07CF9CE
:1015700010BD00000004024070B50546002400BF05
:101580001FE040211448FFF7F7FE012002F06CF93C
:10159000C4F1070045FA00F000F0010020B18021FD
:1015A0000D48FFF7EBFE03E080210B48FFF7E4FE58
:1015B00040210948FFF7E2FE042002F055F9601CC3
:1015C000C4B2082CDDDB40210348FFF7D5FE022022
:1015D00002F04AF970BD00000004024010B540213D
:1015E0000A48FFF7CBFE80210848FFF7C7FE02201C
:1015F00002F03AF980210548FFF7BEFE022002F012
:1016000033F940210148FFF7B7FE10BD0004024046
:1016100010B580210C48FFF7AFFE40210A48FFF7C4
:10162000ABFE022002F020F940210748FFF7A6FE9A
:10163000022002F019F980210348FFF79FFE0220E3
:1016400002F012F910BD00000004024000B585B0A0
:101650000121880300F05EFB1020039000208DF82C
:10166000100001208DF8130000208DF8110003A94F
:101670001248FFF70DFE0421084600F0DFFB1020A2
:10168000019001208DF80A000C208DF8090000203F
:101690008DF8080001A8FFF799FD0A208DF80000D9
:1016A00001208DF8030000208DF801008DF8020064
:1016B000684600F0ADF905B000BD00000010024022
:1016C00000B585B00121880300F024FB20200390A1
:1016D00000208DF8100001208DF8130000208DF8F7
:1016E000110003A91248FFF7D3FD0521042000F0E3
:1016F000A5FB2020019001208DF80A000C208DF818
:10170000090000208DF8080001A8FFF75FFD1720F1
:101710008DF8000001208DF8030000208DF80100F5
:101720008DF80200684600F073F905B000BD0000B6
:101730000010024000B585B00121880300F0EAFAEC
:101740004020039000208DF8100001208DF8130038
:1017500000208DF8110003A91248FFF799FD06211A
:10176000042000F06BFB4020019001208DF80A005E
:101770000C208DF8090000208DF8080001A8FFF763
:1017800025FD17208DF8000001208DF803000020B2
:101790008DF801008DF80200684600F039F905B0B7
:1017A00000BD00000010024000B585B00121880393
:1017B00000F0B0FA4FF40050039000208DF81000B4
:1017C00001208DF8130000208DF8110003A91348A3
:1017D000FFF75EFD0D21022000F030FB4FF40050BA
:1017E000019001208DF80A000C208DF809000020DE
:1017F0008DF8080001A8FFF7E9FC28208DF800000B
:1018000001208DF8030000208DF801008DF8020002
:10181000684600F0FDF805B000BD00000008024079
:1018200010B5AE2001F03FFB002001F03CFB102082
:1018300001F039FB402001F036FB812001F033FB41
:10184000CF2001F030FBA12001F02DFBC82001F0DA
:101850002AFBA62001F027FBA82001F024FB3F2053
:1018600001F021FBD32001F01EFB002001F01BFB47
:10187000D52001F018FB802001F015FBD92001F0E4
:1018800012FBF12001F00FFBDA2001F00CFB12201B
:1018900001F009FBDB2001F006FB402001F003FB17
:1018A000022001F000FB8D2001F0FDFA142001F070
:1018B000FAFAA42001F0F7FAA62001F0F4FAAF201A
:1018C00001F0F1FAAF2001F0EEFA002000F0E6F8A6
:1018D00010BD00001CB50121102000F0EBF97020B4
:1018E000009000208DF8040001208DF807000020F2
:1018F0008DF8050069460248FFF7CAFC1CBD0000D0
:10190000001002401CB50121042000F0D3F9002092
:101910008DF804004FF40050009001208DF807006E
:1019200000208DF8050069460148FFF7B1FC1CBD99
:101930000008024010B50446012C04D0022C08D047
:10194000032C12D10BE04FF480710948FFF716FD0C
:101950000CE04FF400710648FFF710FD06E04FF46D
:1019600080610348FFF70AFD00E000BF00BF10BD23
:101970000010024010B50446012C03D101020848B2
:10198000FFF7FAFC022C03D121020548FFF7F4FC13
:10199000032C04D14FF480610148FFF7EDFC10BD2A
:1019A000001002401CB50121102000F083F94FF413
:1019B000E060009001208DF8040000208DF8060002
:1019C00001208DF8070000208DF8050069460948C0
:1019D000FFF75EFC4FF480710648FFF7CFFC4FF431
:1019E00000710448FFF7CAFC4FF480610148FFF71B
:1019F000C5FC1CBD00100240044A00FB02F100BF00
:101A00000A00A1F10101FBD170470000A08601008E
:101A100070B5002100230F22C4781CB3174C246832
:101A200004F4E064C4F5E064C4F30721C1F10404E4
:101A3000E3B20A4144789C40E1B2847814402143E7
:101A40000C07210E0E4C05786155047804F01F0533
:101A50000124AC4005786D11AD0005F1E025C5F815
:101A6000004109E0047804F01F050124AC40054D55
:101A70000678761145F8264070BD00000CED00E0B8
:101A800000E400E080E100E002490143024A116005
:101A9000704700000000FA050CED00E070B5064646
:101AA000002415E004F1B001C8B201F0FCF90020F7
:101AB00001F0F9F9102001F0F6F9002504E03046B4
:101AC00001F008FA681CC5B2802DF8DB601CC4B2B6
:101AD000082CE7DB70BD70B504460D4605F1B0017A
:101AE000C8B201F0E0F9102141EA141001F0DBF96D
:101AF00004F00F0001F0D7F970BD2DE9F041074661
:101B00000E461546002431463846FFF7E4FF00BF75
:101B100004E0285D01F0DEF9601CC4B2102CF8DB93
:101B2000701CC1B23846FFF7D6FF002406E004F16E
:101B30001001685C01F0CEF9601CC4B2102CF6DB19
:101B4000BDE8F0812DE9F04106460F46904600249D
:101B500045462AE039463046FFF7BDFF002409E03C
:101B60002978203904EB0111124A505C01F0B2F9D6
:101B7000601CC4B2082CF3DB781CC1B23046FFF7FE
:101B8000AAFF00240BE029782039082202EB01117A
:101B90002144084A505C01F09DF9601CC4B2082C35
:101BA000F1DB6D1C06F10800C6B228780028D1D1FF
:101BB000BDE8F081345A00080024012502F096FCAB
:101BC00020E011480068012814D10A2002F00EFF1D
:101BD0000DB1641C00E0641E3C2C00D9002504B942
:101BE000012521464FF0804000F02BFD0A2002F035
:101BF000FDFE07E000214FF0804000F022FD0A20AA
:101C000002F0F4FEDDE700002400002000B58BB0F8
:101C10000121084600F07EF80121102000F04AF86A
:101C2000224800F04BFB012209212148FFF778FBF5
:101C30004FF40070069002208DF81C0003208DF8F0
:101C40001D0000208DF81E0001208DF81F0006A940
:101C50001748FFF71DFB4FF4C870ADF820000020B7
:101C6000ADF82200642009900020ADF8280008A9F2
:101C70000E4800F0E9FC6020ADF804000020ADF84B
:101C800010000120ADF806000020ADF8140001A9F5
:101C9000064800F0DBFB0121044800F0F4FA0121C2
:101CA000024800F0FCFA0BB000BD0000000001404B
:101CB0000010024029B1064A12680243044B1A6020
:101CC00004E0034A12688243014B1A607047000027
:101CD0003038024029B1064A12680243044B1A60A8
:101CE00004E0034A12688243014B1A607047000007
:101CF0004038024029B1064A12680243044B1A6078
:101D000004E0034A12688243014B1A6070470000E6
:101D10002038024029B1064A12680243044B1A6077
:101D200004E0034A12688243014B1A6070470000C6
:101D30004438024029B1064A12680243044B1A6033
:101D400004E0034A12688243014B1A6070470000A6
:101D500024380240F0B5002100220024022500268C
:101D60000223324F3F6807F00C0121B1042905D04E
:101D7000082937D105E02E4F076036E02D4F076068
:101D800033E02A4F3F1F3F68C7F38056274F3F1F5E
:101D90003F6807F03F036EB1264FB7FBF3F7DFF85C
:101DA0008CC0ACF1040CDCF800C0CCF3881C07FB41
:101DB0000CF40CE01E4FB7FBF3F7DFF870C0ACF18A
:101DC000040CDCF800C0CCF3881C07FB0CF4174FA4
:101DD0003F1F3F68C7F301477F1C7D00B4FBF5F749
:101DE000076002E0124F076000BF00BF0F4F3F685F
:101DF00007F0F0010909104F7A5C0768D740476087
:101E00000A4F3F6807F4E051890A0B4F7A5C476834
:101E1000D7408760054F3F6807F46041490B064F84
:101E20007A5C4768D740C760F0BD000008380240C0
:101E30000024F40000127A002C03002030B50022A8
:101E40008B071C0F0F2303FA04F20B4B8C1053F873
:101E500024309343084C8D1044F8253023468C10D1
:101E600053F824308C07240F00FA04F42343024C67
:101E70008D1044F8253030BD083801400CB50020E5
:101E8000019000903448006840F480303249086086
:101E900000BF3148006800F4003000900198401CF9
:101EA0000190009818B90198B0F5A04FF1D12A48D7
:101EB000006800F4003010B10120009001E0002023
:101EC00000900098012846D123484030006840F037
:101ED00080502149403108602048006840F440406B
:101EE0001E4908601C48083000681B49083108601A
:101EF0000846006840F4004008600846006840F466
:101F0000A05008601648091F0860081F006840F0CC
:101F10008070091F086000BF0F48006800F0007063
:101F20000028F9D040F205700E4908600A480830D0
:101F3000006820F00300084908310860084600687E
:101F400040F00200086000BF03480830006800F05D
:101F50000C000828F8D10CBD003802400070004089
:101F600008544007003C0240042808D14FF0E0210B
:101F7000096941F004014FF0E022116107E04FF0E0
:101F8000E021096921F004014FF0E022116170475E
:101F900010B503F0F5FA012801D002F0B7FF10BD2B
:101FA00010B51548006840F47000134908601348E4
:101FB000006840F001001149086000200F49083115
:101FC00008600E4800680E4908400C4908600D483A
:101FD000091D0860081F006820F48020091F0860A0
:101FE000002006490C310860FFF748FF4FF0006001
:101FF00001498039086010BD88ED00E000380240DA
:10200000FFFFF6FE1030002400B58BB00121402008
:10201000FFF760FE01210220FFF74CFE09220F218D
:102020001D48FFF77DF902208DF8280080030990F4
:1020300001208DF82B0000208DF8290009A91648F1
:10204000FFF726F95320079044F62060ADF81800FA
:102050000020ADF81A00ADF8200006A90F4800F0E6
:10206000F3FA6020ADF804000020ADF81000012064
:10207000ADF8060001A9094800F026FA0821074832
:1020800000F074FA0121054800F0EEF80121034840
:1020900000F0F9F80BB000BD000402400018004049
:1020A00070B52DED048BADF5287D0020A790A6908E
:1020B0000DF29D23A7AAD11EA6A8FEF7FBFE064699
:1020C00005210020FFF765F9044605210A20FFF7E6
:1020D00060F908EE100AF8EE480A9FED481A80EE03
:1020E000810ADFED470A20EE200A10EE105A002E7A
:1020F00077D1802186A8FEF7D8F82846FEF7FCF8AD
:1021000041EC190B8DED049B9DF899029DF89812F6
:10211000CDE9010400919DF89D329DF89C2239A1E2
:1021200086A800F001FF86A93BA000F0EDFE9DF817
:102130009C021F2805DB6420FFF792F80320FEF7BE
:1021400022FD802166A8FEF7B0F89DF89D329DF82B
:102150009C2232A166A800F0E7FE66AA0021322088
:10216000FFF7F0FC2F4A00215A20FFF7C6FC802120
:1021700046A8FEF79AF89DF899329DF8982227A173
:1021800046A800F0D1FE46AA02213220FFF7DAFC71
:1021900025A202215A20FFF7D5FC802126A8FEF7B0
:1021A00084F8224621A126A800F0BEFE26AA04211A
:1021B0003220FFF7C7FC802106A8FEF776F82846F4
:1021C000FEF79AF841EC190B53EC192B18A106A84D
:1021D00000F0AAFE06AA06213220FFF7B3FC03E0B6
:1021E000FFE714A000F090FE0121164800F048F827
:1021F0000DF5287DBDEC048B70BD0000000080450E
:102200003333534025642E2564202025642E256415
:102210002025642025660A002573000025642E25EC
:1022200064000000FC02002025000000256400007E
:1022300025665600444854313120D2ECB3A30D0A30
:10224000000000000008004010B54FF40071044881
:10225000FFF796F80121034800F012F810BD0000C6
:10226000001002400008004021B1028842F08002C4
:10227000028004E002884FF67F731A4002807047A4
:10228000CA430282704721B1028842F001020280F3
:1022900004E002884FF6FE731A400280704731B1A5
:1022A000B0F8442042F40042A0F8442005E0B0F821
:1022B0004420C2F30E02A0F84420704710B5044633
:1022C0005548844208D101210846FFF733FD00211B
:1022D0000120FFF72FFD9DE0B4F1804F08D10121CF
:1022E0000846FFF707FD00210120FFF703FD91E0FD
:1022F0004A48844208D101210220FFF7FBFC00215B
:102300000220FFF7F7FC85E04548844208D101210F
:102310000420FFF7EFFC00210420FFF7EBFC79E03D
:102320004048844208D101210820FFF7E3FC002146
:102330000820FFF7DFFC6DE03B48844208D1012113
:102340001020FFF7D7FC00211020FFF7D3FC61E03D
:102350003648844208D101212020FFF7CBFC002120
:102360002020FFF7C7FC55E03148844208D1012105
:102370000220FFF7DFFC00210220FFF7DBFC49E031
:102380002C48844209D101210804FFF7D3FC002125
:102390004FF48030FFF7CEFC3CE02748844209D15F
:1023A00001214804FFF7C6FC00214FF40030FFF77D
:1023B000C1FC2FE02148844209D101218804FFF7A4
:1023C000B9FC00214FF48020FFF7B4FC22E01C4848
:1023D000844208D101214020FFF78CFC00214020DD
:1023E000FFF788FC16E01748844208D101218020BD
:1023F000FFF780FC00218020FFF77CFC0AE01248F8
:10240000844207D101218015FFF774FC0021A0153B
:10241000FFF770FC10BD0000000001400004004008
:1024200000080040000C0040001000400014004074
:1024300000040140004001400044014000480140C8
:1024400000180040001C00400020004070B500242F
:1024500000220023058C4FF6FE7635400584028C61
:102460008388048B4FF68F752C40B51E2C400D8849
:102470002C43751E2A408D892A434D882A43104DCE
:10248000A84202D00F4DA84213D14FF6F7752A404B
:10249000CD892A434FF6FB752A408D882A434FF693
:1024A000FF652B404FF6FF552B400D8A2B434D8A7D
:1024B0002B43838004838D684563028470BD0000D4
:1024C000000001400004014070B5002400220023F8
:1024D000058C4FF6EF7635400584028C8388048B9B
:1024E00048F6FF752C404FF6FF452C400D884FF6FF
:1024F000FF7606EA05252C434FF6DF752A408D89C5
:1025000006EA05152A434D8806EA05152A43154DA6
:10251000A84202D0144DA8421DD14FF67F752A4023
:10252000CD894FF6FF7606EA05152A434FF6BF75AB
:102530002A408D8806EA05152A434FF6FF352B40C1
:102540004FF2FF752B400D8A06EA85052B434D8A15
:1025500006EA85052B43838004838D6885630284A6
:1025600070BD000000000140000401400A46002147
:10257000018B4FF2FF7319404FF6FF7303EA0223FA
:10258000194301837047000070B500240022002326
:10259000058C4FF6FF6635400584028C8388848B5A
:1025A0004FF68F752C404FF6FC752C400D882C4350
:1025B0004FF6FF552A408D894FF6FF7606EA05252E
:1025C0002A434D8806EA05252A43154DA84202D024
:1025D000144DA8421DD14FF2FF752A40CD894FF608
:1025E000FF7606EA05252A434FF6FF352A408D88F7
:1025F00006EA05252A434EF6FF752B404DF6FF757A
:102600002B400D8A06EA05152B434D8A06EA05156F
:102610002B43838084838D68C563028470BD000072
:1026200000000140000401400A460021818B4FF662
:10263000F773194011438183704741637047816389
:102640007047C1637047000000220288184B98420F
:102650000ED0184B98420BD0B0F1804F08D0164BDB
:10266000984205D0154B984202D0154B984204D1A0
:102670004FF68F731A404B881A43124B984207D07B
:10268000114B984204D04FF6FF431A400B891A436E
:1026900002804B68C3620B880385054B984202D0C9
:1026A000044B984201D18B7A0386012383827047C1
:1026B0000000014000040140000400400008004008
:1026C000000C0040001000400014004000B587B02E
:1026D00001211020FFF71EFB01210846FFF7EAFA4F
:1026E000072209212248FEF71BFE07220A21204863
:1026F000FEF716FE02208DF818004FF4C06005901A
:1027000001208DF81B0000208DF8190005A918483C
:10271000FEF7BEFD4FF4E13001900020ADF810004F
:102720000C20ADF80E000020ADF80C00ADF80A004A
:10273000ADF8080001A90F4800F046FB01210D4843
:1027400000F0D9FA25208DF8000001208DF8030053
:1027500000208DF801008DF802006846FFF758F957
:10276000012240F22551034800F008FB07B000BDEC
:10277000000002400010014010B540F225519D4874
:1027800000F0C5FA58B19B4800F088FB9A499B4A73
:102790001268885499480068401C9849086098A1BC
:1027A0009548FDF794FD98B9FEF728FA0020934963
:1027B00008600120954908600020FFF76FF994A296
:1027C00003210A20FFF7BEF918218B48FDF76DFDA4
:1027D00093A18948FDF77BFD80B90120FFF7CAF876
:1027E000002086490860FFF759F990A203210A20CA
:1027F000FFF7A8F918218048FDF757FD8FA17E4803
:10280000FDF765FD88B9FEF7EFF900207B49086008
:102810007E490860FFF742F98BA203210A20FFF7E7
:1028200091F918217448FDF740FD8BA17248FDF71E
:102830004EFD80B90120FFF77DF800206F49086048
:10284000FFF72CF987A203210A20FFF77BF9182153
:102850006948FDF72AFD87A16748FDF738FD80B973
:10286000002066490860FFF719F985A203210A20B4
:10287000FFF768F918216048FDF717FD012084492A
:10288000086084A15C48FDF722FDE0B900205B49A7
:10289000086018215848FDF708FD00207C490860B1
:1028A00000217F48FFF7C9FE0220FFF743F8002010
:1028B000FFF7F4F87BA203210A20FFF743F9182160
:1028C0004D48FDF7F2FC7BA14B48FDF700FD88B9B0
:1028D0003220FEF7C5FC0020484908601821464810
:1028E000FDF7E3FC0020FFF7D9F875A203210A20C9
:1028F000FFF728F976A14048FDF7E9FC88B90020E8
:10290000FEF7AEFC00203D49086018213A48FDF76B
:10291000CCFC0020FFF7C2F870A203210A20FFF7C9
:1029200011F972A13448FDF7D2FC88B91E20FEF7D8
:1029300097FC00203149086018212F48FDF7B5FCAD
:102940000020FFF7ABF86BA203210A20FFF7FAF88B
:102950006CA12948FDF7BBFC88B95020FEF780FC2C
:1029600000202649086018212348FDF79EFC00201E
:10297000FFF794F866A203210A20FFF7E3F869A1A4
:102980001D48FDF7A4FC88B99620FEF769FC0020DD
:102990001A49086018211848FDF787FC0020FFF746
:1029A0007DF863A203210A20FFF7CCF864A1124846
:1029B000FDF78DFC48B901206649086000200F49E9
:1029C000086018210C48FDF770FC63A10A48FDF768
:1029D0007EFC40B900205F49086008490860182162
:1029E0000548FDF762FC40F22551024800F074F9F9
:1029F00010BD0000001001407C0600204C000020AB
:102A00006F70656E20626565700000002400002014
:102A100042454550206973204F70656E6564000023
:102A20006F70656E204C4544310000004C454431C8
:102A3000206973204F70656E6E656400636C6F7300
:102A4000652062656570000042454550206973202D
:102A5000436C6F7365640000636C6F7365204C4555
:102A6000443100004C45443120697320436C6F733E
:102A7000656400006F70656E204C454432000000B4
:102A80004C454432206973204F70656E6E6564005A
:102A900044000020636C6F7365204C454432000095
:102AA000000001404C45443220697320436C6F7331
:102AB000656400006F70656E2066616E0000000046
:102AC00046414E206973204F70656E6E656400004C
:102AD000636C6F73652066616E00000046414E2096
:102AE000697320434C6F7365640000006C6F77203E
:102AF00066616E004C6F772046414E2053706565CD
:102B0000640000006D6964646C652066616E00009D
:102B10004D6964646C652046414E20537065656460
:102B200000000000666173742066616E00000000A2
:102B3000486967682046414E20537065656400000F
:102B4000737461727420636F6C6C6563742064616C
:102B5000746100004800002073746F7020636F6C14
:102B60006C656374206461746100000010B540F20C
:102B70002551404800F0D8F8002874D03D4800F0B6
:102B80008DF9C4B2082C6DD2DFE804F06C04122079
:102B90002E3C4D5E0020FEF781FF37A2022110205F
:102BA000FEF7D0FF4FF480613648FEF7E7FB59E0AF
:102BB0000020FEF773FF34A202211020FEF7C2FFAF
:102BC0004FF480612F48FEF7D7FB4BE00020FEF763
:102BD00065FF30A202211020FEF7B4FF4FF4E06140
:102BE0002F48FEF7C9FB3DE00020FEF757FF2DA25E
:102BF00002211020FEF7A6FF4FF4E0612848FEF7FF
:102C0000BDFB2FE00020FEF749FF0020FEF746FF46
:102C100027A202210120FEF795FF274A0221412029
:102C2000FEF790FF1EE00020FEF738FF0020FEF7C1
:102C300035FF22A202210120FEF784FF214A022152
:102C40004120FEF77FFF0DE00020FEF727FF1EA2C8
:102C500002210120FEF776FF1E4A02214620FEF7E0
:102C600071FF00BF00BF40F22551024800F034F868
:102C700010BD0000004400404F50454E20424545E5
:102C80005000000000040240434C4F534520424591
:102C9000455000004F50454E204C45445300000025
:102CA00000100240434C4F5345204C454453000014
:102CB00074656D70206973005C00002068756D6933
:102CC00020697300DC0000206C69676874206973F8
:102CD000000000009406002010B50022002340F6FA
:102CE0006A14A14200D100BF0A1201249440A3B289
:102CF000DC43048010BD21B1828942F400528281FC
:102D000004E082894DF6FF731A40828170470246C3
:102D10000020B1F5007F00D100BF13880B400BB13C
:102D2000012000E00020704770B502460024002317
:102D30000025002040F66A16B14200D100BFC1F361
:102D4000421501F01F03012606FA03F3012D02D1FB
:102D50009689334006E0022D02D1168A334001E005
:102D6000968A33400C12012606FA04F41688344081
:102D700013B10CB1012000E0002070BDF0B5034696
:102D8000002400260025002040F66A17B94200D131
:102D900000BF1846C1F3421401F01F06012707FACD
:102DA00006F5012C01D10C3004E0022C01D11030C9
:102DB00000E014301AB107682F43076002E007688B
:102DC000AF430760F0BD00002DE9FF4705460E4602
:102DD0000024A14600BFA046B08900B100BF2C8AE4
:102DE00024F44054F08804432C82AC8941F20C60F6
:102DF0008443B08831890843718908430443AC8116
:102E0000AC8A24F44074B0890443AC826846FEF76F
:102E1000A1FF2048854202D01F48854202D1DDF83B
:102E20000C9001E0DDF80890A88900F4004040B162
:102E300009EBC90000EB091031684900B0FBF1F75C
:102E400007E009EBC90000EB091031688900B0FB0D
:102E5000F1F76420B7FBF0F004012009642101FBC5
:102E60001078A88900F4004040B1322000EBC8007F
:102E7000B0FBF1F000F00700044308E0322000EB63
:102E800008106421B0FBF1F000F00F0004432C8126
:102E9000BDE8FF870010014000140140014688880A
:102EA000C0F30800704770B504460025FEF796FB96
:102EB0007820FEF761FBFEF7B7FA2846FEF75CFBC9
:102EC000FEF7B2FA2046FEF757FBFEF7ADFAFEF723
:102ED0009FFB70BD70B50546002444F04004FEF72A
:102EE0007DFB7820FEF748FBFEF79EFA2046FEF7B2
:102EF00043FBFEF799FA2846FEF73EFBFEF794FAED
:102F0000FEF786FB70BD00000FB4054B10B503A99A
:102F1000044A029800F0DEF810BC5DF814FB0000D3
:102F2000B1380008B00300200FB4084B10B504A955
:102F300002AA039800F0CEF8044602A9002000F08F
:102F400060FC204610BC5DF814FB0000033800084C
:102F500002E008C8121F08C1002AFAD17047704762
:102F6000002001E001C1121F002AFBD170470000C0
:102F70002DE9FF5FDDE90220010DDDF838B00243E5
:102F800018D044F61050A1F2FF3141430D140F98B0
:102F9000012820D0A5EB0B00401C5FEA000A4FF08F
:102FA0000004474EDFF81C91A046504616D5CAF1E2
:102FB000000728E00F98012443A2012808D000212F
:102FC00000980F9BC0E90021C0E90243BDE8FF9FC4
:102FD0006FEA0B01F4E7CBF10000DEE7074612E0F1
:102FE000F80707D02246334640464946FDF78BFA9C
:102FF000804689462246334610461946FDF783FA35
:1030000004460E467F10002FEAD1DDE90201BAF135
:10301000000F42464B4602DAFDF775FA01E0FDF774
:10302000E4FA04460E460022284BFDF765FB03D860
:103030004FF0FF30014607E00022254B2046314685
:10304000FDF7BAF9FDF740FB102409E0002C0ADB7C
:103050000A220023FDF779F9019B30321A55641ECC
:1030600050EA0102F2D1641C019AC4F11103144424
:103070000F9A012A03D0012208430DD10AE0084328
:1030800004D000204FF0110B0F9080E7A3EB0B054D
:103090006D1E0DE05B4504DD4FF0000205F10105FA
:1030A00004E003DA4FF00002A5F10105002AECD09C
:1030B00000980F99C0E90231C0E9004586E7000099
:1030C000000024400000F03F300000000000F0430A
:1030D0000000E03F2DE9FF4F95B09B46894606462C
:1030E00000250FE2252877D100242746F84A012140
:1030F000059400E0044316F8013F203B01FA03F079
:103100001042F7D130782A2811D06FF02F03307891
:10311000A0F13002092A16D8059A44F0020402EB05
:10312000820203EB42021044761C0590EFE759F847
:10313000042B0592002A03DA504244F4005405900F
:1031400044F00204761C30782E2816D116F8010FB0
:1031500044F004042A280DD06FF02F023078A0F13B
:103160003003092B09D807EB870302EB4303C71889
:10317000761CF3E759F8047B761C30786C280FD066
:1031800006DC4C2817D068280DD06A2814D104E03A
:10319000742810D07A280FD10DE044F400140AE00E
:1031A00044F4801401E044F440147278824202D165
:1031B00004F58014761C761C307866280BD013DC5E
:1031C000582877D009DC002875D04528F6D0462845
:1031D000F4D047281AD19DE118E0632835D064283F
:1031E00079D0652812D195E1702873D008DC672862
:1031F000F1D069286FD06E280DD06F2806D1B5E0C8
:1032000073282CD0752875D0782874D05A46179911
:1032100090476D1C75E1C4F30250022809D00328C1
:103220000DD0D9F8001004280DD00D6009F1040963
:1032300067E1D9F80010EA17C1E90052F6E7D9F8BA
:1032400000100D80F2E70D70F0E719F8041B8DF8FF
:10325000001000208DF80100EA46012003E059F833
:1032600004AB4FF0FF3061074FF0000102D40DE0D6
:1032700008F101018846B9420FDA8045F8DB1AF8F7
:1032800008100029F4D108E008F1010188468142C4
:10329000FADB1AF808100029F6D105985B46A0EB76
:1032A000080721463846179A00F094FA284400EBA4
:1032B000080507E04DE029E10DE01AF8010B5A4638
:1032C00017999047B8F10108F7D25B462146384676
:1032D000179A13E142E00A220092C4F302524FF01F
:1032E000000A022A08D059F804CB032A4FEAEC71ED
:1032F0000AD00DE029E02AE009F1070121F00702D8
:10330000F2E802C1914609E00FFA8CFC4FEAEC7139
:10331000042A03D14FFA8CFC4FEAEC71002907DA3A
:103320000A460021DCF1000C61EB02012D2202E0D3
:10333000220504D52B228DF80420012203E0E207A8
:1033400001D02022F7E7904659E00A2102E010223E
:103350000DE010214FF0000A00910BE010224FF019
:10336000000A44F004040827009203E008224FF00A
:10337000000A0092C4F30252022A05D059F804CB85
:103380000021032A08D009E009F1070121F0070212
:10339000F2E802C1914605E01FFA8CFC042A01D133
:1033A0000CF0FF0C4FF00008220728D5702806D03B
:1033B000009B83F0100353EA0A0305D00EE040227D
:1033C0008DF80420012208E05CEA010206D03022D8
:1033D0008DF804208DF8050002229046009B83F0B2
:1033E000080353EA0A030AD15CEA010201D1620729
:1033F00005D530228DF804204FF001087F1E582893
:1034000004D034A003900EA802900DE036A0F9E796
:1034100053466046009AFCF798FF84460398825C06
:103420000298401E029002705CEA0100F0D10298FE
:1034300006A9081A00F1200A600702D524F4803496
:1034400000E00127574502DDA7EB0A0000E000205D
:1034500000EB0A01009005984144401A0590E003F2
:1034600006D45B462146179A059800F0B3F9054447
:10347000002706E001A85A46C05D179990476D1CC9
:103480007F1C4745F6DBE0030CD55B462146179AC7
:10349000059800F09FF9054404E030205A4617993A
:1034A00090476D1C0099481E00900029F5DC08E04B
:1034B000029802995A460078491C02911799904740
:1034C0006D1CBAF10001AAF1010AF1DC65E100000E
:1034D00009280100303132333435363738396162EA
:1034E00063646566000000003031323334353637AE
:1034F00038394142434445460000000000F058F985
:103500000544761C307800287FF4ECAD19B02846CD
:10351000BDE8F08F620700D4062709F1070222F008
:10352000070CFCE80223E14603F000485FEA080CC0
:1035300002D00FF2702C0DE05FEA045C02D50FF2AE
:10354000682C07E05FEAC47C02D00FF2602C01E037
:10355000AFF2700C4FF0FF3823F00043CDF850C0AD
:1035600065280CD006DC452809D046281DD0472800
:103570003DD13DE0662818D067287ED138E0002193
:10358000112F01DB112000E0781CCDE9000106A914
:103590000EA8FFF7EDFCDDE90F010E9A0391002163
:1035A000009207F1010A04914DE04FF000400097AE
:1035B000CDE9011006A90EA8FFF7DAFCDDE90F023C
:1035C00003920E9B11990022DDF80CA00093049247
:1035D00011B9791C00EB010AB7EB0A0004D4C0F161
:1035E000FF3007F1010A0490AAEB0700019044E0C4
:1035F000012F00DA01270021112F01DD112000E049
:103600003846CDE9000106A90EA8FFF7B1FCDDE9B7
:103610000F010E9A0391002104910092BA462107EE
:103620000CD40399514500DA8A46BAF1010F05DD41
:10363000009AAAF10101515C302908D0B84202DA9F
:1036400010F1040F06DA0121CDE9011015E0AAF10D
:103650000101E9E7002805DC049901440491AAEB83
:10366000000102E0411C514500DD8A460499401AE0
:10367000401C01904FF000400290200704D40198B4
:10368000504501DBCDF8048000208DF84F000298F2
:103690000DF14F07B0F1004F25D02B200E9002986E
:1036A0004FF0020800280CDA404202902D200E90C4
:1036B00007E00A210298FCF732FE3031029007F849
:1036C000011DB8F10001A8F10108F2DC0298002800
:1036D000EFD1791E0E980870307800F0200040F08D
:1036E000450007F8020D12A8C01B00F10708149846
:1036F000007800B1012000EB0A01019801EBE071B4
:1037000005984144401A401E0590E00306D45B46EC
:103710002146179A059800F05DF805441498007842
:1037200018B15A46179990476D1CE00324D55B46A3
:103730002146179A059800F04DF805441CE00498BE
:10374000002807DBDDE90301884203DD0098405CC7
:10375000179901E0179930205A469047049805F1CF
:103760000105401C04900198401E019004D12E20B8
:103770005A46179990476D1CBAF10001AAF1010A47
:10378000DDDC05E017F8010B5A46179990476D1CD0
:10379000B8F10001A8F10108F4DC5B462146179A54
:1037A0000598ABE62D0000002B0000002000000073
:1037B0002DE9F041044600251E461746880404D42E
:1037C00005E039462020B0476D1C641EF9D5284617
:1037D000BDE8F0812DE9F041044600251E469046E3
:1037E000C80301D5302700E02027880404D505E070
:1037F00041463846B0476D1C641EF9D52846BDE8E1
:10380000F0810A68531C0B601070704770B5044655
:103810000420FEF7A9FB0C48047025464FF47A708B
:1038200045430120094908804FF0E020006940F03D
:1038300002004FF0E021086108464561006940F050
:103840000100086170BD00003C0000203E00002027
:1038500030B50446002504E04FF47A7000F004F817
:103860006D1CA542F8D330BD70B5034600224FF061
:10387000E02675690D4E367803FB06F44FF0E0261E
:10388000B16910E04FF0E026B06988420BD0884261
:1038900002D20E1A324402E02E1A0E44324401467D
:1038A000A24200D300E0EDE700BF70BD3C00002065
:1038B00000BF054A128802F04002002AF9D0C2B2C5
:1038C000014B9A8070470000001001400024012540
:1038D0001EE010480068012816D10F480068012832
:1038E00012D115B1601C84B201E0601E84B2642C58
:1038F00000DD002504B9012521460848FEF79DFE9C
:103900000A2001F073F803E000210448FEF795FE59
:10391000DFE70000440000201C0000200000014000
:103920000BE00648006820B14FF480610448FDF7C1
:1039300027FD4FF47A7001F059F8F2E71C000020DF
:10394000001002401CB54FF44070FEF79DF8FEF7E2
:1039500029F8A820FFF75AFFFDF726F9FDF7BAFF6F
:10396000FDF7D0FFFEF7B2FE00F088FE15A0FFF7CE
:10397000CBFAFDF76BFEFDF7A3FEFDF7DBFEFDF7CF
:1039800013FFFEF741FB14A0FFF7BEFAFDF774FC2E
:103990000020FDF765FCFDF72DFDFDF741FFFDF76C
:1039A00031FAFEF733F91448012100238022CDE9D2
:1039B000001012A1144801F0B3FD01F071F90020CC
:1039C0001CBD0000B4AEBFDAB3F5CABCBBAFCDEAD4
:1039D000B3C90D0A000000006C6564206265657063
:1039E000206B65792066616E20B3F5CABCBBAFB3AE
:1039F000C9B9A60D0A000000280000207374617286
:103A0000745F7461736B0000BD4500082DE9F041DF
:103A100005460E461C4807681C480068001D00F05B
:103A200081FE50B91948006890F82C100120884098
:103A300017490968814316480160681C38B936B1D6
:103A400012480168091D134800F0AAFE1AE07C190B
:103A50000E4800684460BC4207D20C480168091D4A
:103A60000D48006800F082FE0CE008480168091D5E
:103A70000A48006800F07AFE09480068844201D2D2
:103A800007480460BDE8F081500300203C0300209B
:103A900054030020A8070020440300204003002016
:103AA0006C03002010B5044600F086FE2448006830
:103AB000401C234908602348006840B9214804603D
:103AC0000846006801280DD100F0DEF90AE01E4822
:103AD000006838B91B480068C06AE16A884201D8AA
:103AE0001848046019480068401C184908600846D6
:103AF0000068206494F82C1001208840144909685B
:103B0000084313490860E16A01EB8101114A02EBA5
:103B10008100211D00F044FE00F078FE0A48006894
:103B200068B108480068C06AE16A884207D24FF06D
:103B3000805009490860BFF34F8FBFF36F8F10BDEE
:103B40004C0300203C0300205803002068030020A1
:103B500054030020F406002004ED00E010B500F04E
:103B60002BFE10480068D0B90F4800F0EFFD0F4859
:103B700000F0ECFD0C480E4908600C480D49086047
:103B800000220C210A2001F0DBF9064908600846F2
:103B9000006820B108A10348006800F0EBFE00F0C7
:103BA00035FE10BD80030020BC070020D007002098
:103BB000780300207C030020546D72510000000047
:103BC00070B523E001F0B6F81348006808B9012089
:103BD00000E00020054601F03DFEBDB900F0ECFD1F
:103BE0000D48C068C468201D00F09CFD0B480068AB
:103BF000401E0A4908600A480068401E08490860DB
:103C000000F004FE204600F060F800BF04480068A1
:103C10000028D7D170BD0000940700204C0300207D
:103C20004803002070B504460D46206C70B1216C2D
:103C3000E0680844E0606168E068884201D3206879
:103C4000E0602846226CE168FCF716FB70BD2DE9A8
:103C5000F04104460F4615464FF00008A66B206C55
:103C600040B9206860BB606801F044FD80460020D8
:103C7000606025E07DB93946226CA068FCF7FCFA4B
:103C8000216CA0680844A060D4E90110884217D3D1
:103C90002068A06014E03946226CE068FCF7ECFA7A
:103CA000216CE068401AE0602168E068884203D235
:103CB000216C6068401AE060022D01D106B1761EC9
:103CC000701CA0634046BDE8F08110B50446206B2F
:103CD00000F0BAFD204600F0B7FD10BD0146084ACD
:103CE000126812680AB9012200E000220A600A681C
:103CF00022B9034A1268D268106800E000207047B9
:103D00007803002030B54FF49633174800F00704CD
:103D10002CB1C01D20F00700134C041B1B1B0246D6
:103D2000124C22600024114D6C60D018083820F02D
:103D300007000F4C206000240D4D2D686C600C4D69
:103D40002D682C601146441A4C60094C24680C60A4
:103D5000084D4C682C60084D4C682C604FF00044B6
:103D6000064D2C6030BD0000E407002098030020C1
:103D7000A0030020A8030020A4030020AC0300201F
:103D800000BFFFF71DFF064800680128F9D94FF072
:103D9000805004490860BFF34F8FBFF36F8FF0E787
:103DA000F406002004ED00E02DE9F04106460D4642
:103DB00017469846069C0DB9246000E02760E6632C
:103DC00025640121204601F0C9F984F84C80BDE842
:103DD000F0812DE9F05F82460F4690469B460A9E91
:103DE0000C9C4FEA8801A522206BFCF757FAA8F13A
:103DF0000100216B01EB800929F0070909F0070098
:103E000008B9012000E0002050B900BF502080F325
:103E10001188BFF34F8FBFF36F8F00BF00BFFEE766
:103E2000002507E0795D04F134004155785D00B963
:103E300002E06D1C0A2DF5D300BF00213D20015585
:103E4000052E00D30426E662A6640020E064201D4F
:103E500000F089FC04F1180000F085FC2461C6F133
:103E60000500A06164620020206584F854005A4671
:103E70005146484600F08CFB20600B9808B10B9827
:103E80000460BDE8F09F000010B5002407E004EBDB
:103E900084010F4A02EB810000F058FC641C052CE1
:103EA000F5D30C4800F052FC0B4800F04FFC0B48D7
:103EB00000F04CFC0A4800F049FC0A4800F046FCBF
:103EC00004480949086004480849086010BD00001A
:103ED000F4060020580700206C070020800700200F
:103EE00094070020A807002040030020440300207E
:103EF00010B50146164800E0006803688B42FBD30A
:103F00000246436813448B4204D143684C682344FF
:103F1000436001460A464B6813440468A34211D12A
:103F20000C4C03682468A34208D04B68046864689A
:103F300023444B6003681B680B6005E0054B1B685E
:103F40000B6001E003680B60884200D0016010BD87
:103F500098030020A00300202DE9F04104460D46FF
:103F600016461F464FF0000865602461B5420CD824
:103F7000F01BA169884202D34FF0010811E0211D16
:103F80000948006800F0F2FB0BE0BE4204D2BD42DB
:103F900002D34FF0010804E0211D0448006800F03E
:103FA000E5FB4046BDE8F0817C030020780300205B
:103FB00070B5054600F000FCA86B08B9012400E0CC
:103FC000002400F023FC204670BD70B5054600F0CB
:103FD000F3FBA86BE96B884201D1012400E00024C7
:103FE00000F014FC204670BDF8B505460F46164893
:103FF0000068C068C468201D00F094FBE0690128D7
:104000001DD1A06941192B463A462046FFF7A4FF6F
:10401000A8B1002003462A4601460090204601F040
:10402000C7FC064656B900BF502080F31188BFF385
:104030004F8FBFF36F8F00BF00BFFEE700BF20466A
:10404000616A8847F8BD00007803002070B586B02B
:104050006AE00398002867DB059C606908B90120C5
:1040600000E0002010B9201D00F05CFB02A800F069
:10407000BDF8054603980A2854D2DFE800F0090588
:104080000731334F0608323400BF00BF00BF00BF06
:104090000498A269811803462A462046FFF75CFF70
:1040A000E8B12046616A8847E069012817D10020FD
:1040B00000900498A169421800231946204601F097
:1040C00077FC064656B900BF502080F31188BFF335
:1040D0004F8FBFF36F8F00BF00BFFEE700BF22E02E
:1040E00000BF20E000BF0498A061A06908B10120D2
:1040F00000E0002050B900BF502080F31188BFF3CA
:104100004F8FBFF36F8F00BF00BFFEE7A06941195B
:104110002B462A462046FFF71FFF04E0204600F00A
:1041200093FB00E000BF00BF00231A4603A9044828
:10413000006800F031FF00288BD106B070BD000090
:1041400080030020F8B505460C4600F0F3FD6846F4
:1041500000F04CF80646009820BB44B9B54206D89A
:1041600001F078FB31462846FFF73EFF1CE03CB1EA
:104170000E480068006808B9012000E000200446ED
:10418000A91B22460A48006800F00AFC01F062FB05
:1041900050B94FF0805007490860BFF34F8FBFF30D
:1041A0006F8F01E001F056FBF8BD00007C0300209A
:1041B0008003002004ED00E00A490968096809B994
:1041C000012100E0002121B14FF0FF31064A1160CA
:1041D00006E004490968C968C868034A4168116073
:1041E00070470000400300206C03002070B50446B7
:1041F00001F0D6F9054607480068854204D200F070
:104200000BF80120206001E00020206001480560DB
:10421000284670BD880300202DE9F84332E0244889
:104220000068C068056822480068C068C468201D2E
:1042300000F078FA2046616A8847E069012821D1B8
:10424000A0694619AE4207D966602461211D18484D
:10425000006800F08BFA15E0002003462A4601466C
:104260000090204601F0A4FB074657B900BF50203C
:1042700080F31188BFF34F8FBFF36F8F00BF00BF74
:10428000FEE700BF0A480068006808B9012000E0A6
:1042900000200028C3D00648D0F8008005480068F8
:1042A000034908600348C0F80080BDE8F8830000B7
:1042B000780300207C0300200E480068401C08B9E9
:1042C000012000E0002050B900BF502080F3118889
:1042D000BFF34F8FBFF36F8F00BF00BFFEE700BF7C
:1042E000502080F31188BFF34F8FBFF36F8F00BF53
:1042F00000BFFEE78C03002008B500BF6846FFF74B
:10430000EDFC044620460099FFF71CFFFFF79EFED8
:10431000F4E770B5044600F04FFA94F9455010E008
:10432000606A08B9012000E0002038B904F12400D7
:1043300001F044FA18B100F001FC00E003E0681E4F
:1043400045B2002DECDC00BFFF2084F8450000F0F2
:104350005DFA00F031FA94F9445010E0206908B990
:10436000012000E0002048B904F1100001F026FA15
:1043700008B100F0E3FB681E45B200E001E0002D4B
:10438000ECDC00BFFF2084F8440000F03FFA70BD71
:104390002DE9F04104464FF0000800F0CBFC464800
:1043A000006808B9FFF7AEFC4448006820400028C8
:1043B0006BD1D4B1083404F00700B0B104F00700A9
:1043C000C0F10800044404F0070008B9012000E02F
:1043D000002050B900BF502080F31188BFF34F8FE9
:1043E000BFF36F8F00BF00BFFEE7002C4DD03448F5
:1043F0000068844249D8334E3046056801E02E46B5
:104400002D686868A04202D228680028F7D12A489F
:104410000068854239D0306800F1080828683060AB
:104420006868001B102819D92F1907F0070008B970
:10443000012000E0002050B900BF502080F3118817
:10444000BFF34F8FBFF36F8F00BF00BFFEE76868F9
:10445000001B78606C603846FFF74AFD18496868B1
:104460000968081A1649086008460068164909686C
:10447000884203D212480068134908600F496868EF
:104480000968084368600020286001F0E3F908F03B
:10449000070008B9012000E0002050B900BF5020FB
:1044A00080F31188BFF34F8FBFF36F8F00BF00BF42
:1044B000FEE74046BDE8F081A0030020AC030020E9
:1044C000A403002098030020A803002006480068E9
:1044D00030B10549096801F14C00C96C491C016003
:1044E00001480068704700003C03002000B58BB015
:1044F00001210846FDF7EEFB01210220FDF7DAFB62
:1045000001220A212148FCF70BFF4FF4806009903B
:1045100002208DF8280003208DF8290000208DF856
:104520002A0001208DF82B0009A91848FCF7B0FEDD
:104530005320ADF818000020ADF81A004FF47A703F
:1045400007900020ADF8200006A94FF08040FEF74C
:104550007BF86020ADF804000120ADF806000020D3
:10456000ADF8100001A94FF08040FEF70DF80821CA
:10457000C806FEF759F801218807FDF775FE0121ED
:104580008807FDF780FE0BB000BD0000000402406C
:10459000001F4FF080730360001F21F001030360D0
:1045A000001F054B036014380260001F6FF0020308
:1045B0000360203870470000B94200081CB504466B
:1045C00000F0FAF81748022100233222CDE900104A
:1045D00015A1184800F0A4FF17480A210023C8229B
:1045E000CDE9001015A1184800F09AFF17480421E2
:1045F00000233222CDE9001015A1184800F090FFE9
:104600001748052100233222CDE9001015A11948D1
:1046100000F086FF1848006800F016FA00F0F6F87F
:104620001CBD00002C0000206C6564305F74617359
:104630006B000000CD380008340000206461746114
:104640005F7461736B000000110C000830000020E3
:104650004C4544325F7461736B00000021390008DF
:104660003800002050574D5F424545505F746173DC
:104670006B000000B91B00082800002000B587B0BF
:1046800001214804FDF726FB01210820FDF712FB5C
:10469000072205212148FCF743FE072206211F4877
:1046A000FCF73EFE6020059002208DF818000020E7
:1046B0008DF8190001208DF81B0005A91748FCF79B
:1046C000E7FD4FF4E13001900020ADF810000C2020
:1046D000ADF80E000020ADF80C00ADF80A00ADF802
:1046E000080001A90E48FEF76FFB01210C48FEF7F8
:1046F00002FB012240F225510948FEF73FFB26202C
:104700008DF8000001208DF803008DF801008DF870
:1047100002006846FDF77CF907B000BD000C0240BE
:104720000044004001460A69D1E901309860D1E9AE
:10473000010358605068884201D1886850600020A9
:1047400008611068401E10601068704700F1080191
:1047500041604FF0FF31816000F10801C1600161EB
:1047600000210160704700210161704710B50246C9
:104770000B685C1C0CB9106907E002F1080000E04E
:104780004068446824689C42FAD944684C604C688C
:10479000A160886041600A611468641C146010BDE7
:1047A00042684A6093688B609368596091600861C1
:1047B00003685B1C0360704700BF502080F31188C2
:1047C000BFF34F8FBFF36F8F00BF0E480068401CD0
:1047D0000C49086008460068012812D10A480068A0
:1047E000C0B208B9012000E0002050B900BF50203D
:1047F00080F31188BFF34F8FBFF36F8F00BF00BFEF
:10480000FEE770478C03002004ED00E00D480068CF
:1048100050B900BF502080F31188BFF34F8FBFF312
:104820006F8F00BF00BFFEE706480068401E0549C5
:1048300008600846006820B9002080F3118800BF96
:1048400000BF70478C03002070B506463546002E29
:104850003FD0083D2C461F4960680968084008B1F0
:10486000012000E0002050B900BF502080F31188E3
:10487000BFF34F8FBFF36F8F00BF00BFFEE720680D
:1048800008B9012000E0002050B900BF502080F39B
:104890001188BFF34F8FBFF36F8F00BF00BFFEE7DC
:1048A0000C4960680968084098B1206888B90949CE
:1048B000606809688843606000F03CFA06496068F7
:1048C00009680844044908602046FFF711FB00F01E
:1048D000C1FF70BDAC030020A4030020064800689F
:1048E0004FF47A71B0FBF1F0401E4FF0E0214861C7
:1048F00007200861704700000000002070B5FBF73A
:10490000A5FC0446102C16D304F1E02090F8F053D7
:1049100015480078854201DB012000E0002050B9F5
:1049200000BF502080F31188BFF34F8FBFF36F8F0C
:1049300000BF00BFFEE70D48006800F4E0600C49CE
:104940000968884201D8012000E0002050B900BF6A
:10495000502080F31188BFF34F8FBFF36F8F00BFDC
:1049600000BFFEE770BD0000900300200CED00E0EA
:1049700094030020024600200BE0084B53F830302F
:1049800033B9064B43F8301003EBC0035A6002E022
:10499000401C0828F1D300BF70470000B406002077
:1049A0002DE9F04105460E4617462C46FFF704FF59
:1049B00094F94400401C10B9002084F8440094F994
:1049C0004500401C10B9002084F84500FFF71EFF89
:1049D000A06B28B93A46314604F1240000F0D0F823
:1049E0002046FFF796FCBDE8F081000070B5044654
:1049F0000025D4B11248006808B9012000E0002069
:104A000050B900BF502080F31188BFF34F8FBFF320
:104A10006F8F00BF00BFFEE700F08CF90021204639
:104A2000FEF7F4FF00F016FF05463DB94FF0805049
:104A300004490860BFF34F8FBFF36F8F70BD000054
:104A40007403002004ED00E070B50546FFF7B4FEE6
:104A500015B93048006800E028460446201DFFF7DD
:104A600061FE78B9E06A00EB80002B4951F8200024
:104A700040B994F82C1001208840284909688143E6
:104A800026480160A06A18B104F11800FFF74AFE39
:104A900023480068401C224908601E480068844280
:104AA00009D1211D1F48FFF77BFE1F480068401CED
:104AB0001D49086009E01D480068401E1B49086048
:104AC0002046FFF702F9FFF777FBFFF79FFE184834
:104AD0000068E8B10F480068844219D115480068A1
:104AE00008B9012000E0002050B900BF502080F339
:104AF0001188BFF34F8FBFF36F8F00BF00BFFEE77A
:104B00004FF080500C490860BFF34F8FBFF36F8F99
:104B100070BD00003C030020F40600205403002078
:104B20006803002094070020480300204C03002065
:104B3000580300207403002004ED00E00120014927
:104B4000086070476003002070B504460D4654B9F4
:104B500000BF502080F31188BFF34F8FBFF36F8FDA
:104B600000BF00BFFEE70548016818312046FFF787
:104B7000FDFD01212846FEF749FF70BD3C030020E2
:104B800070B505460E46144655B900BF502080F357
:104B90001188BFF34F8FBFF36F8F00BF00BFFEE7D9
:104BA0000648016818312846FFF7FAFD0CB14FF0AE
:104BB000FF3621463046FEF729FF70BD3C0300203A
:104BC00070B505462C46002D4BD02649E06A096891
:104BD000C96A884245D2A06900F0004028B921483E
:104BE0000068C06AC0F10500A061E16A01EB8101C3
:104BF0001D4A02EB81016069884201D1012000E079
:104C0000002050B3201DFFF78DFD78B9E06A00EB5E
:104C10008000154951F8200040B994F82C1001206B
:104C20008840124909688143104801600D480068B6
:104C3000C06AE06294F82C10012088400B49096892
:104C400008430A490860E16A01EB8101064A02EB68
:104C50008100211DFFF7A4FD03E002480068C06A3F
:104C6000E06270BD3C030020F406002054030020E5
:104C700050B900BF502181F31188BFF34F8FBFF3AC
:104C80006F8F00BF00BFFEE7034909680160034959
:104C90000968416070470000640300205003002051
:104CA0001CB51D4800210B468222CDE900101BA136
:104CB0001C4800F035FC0446012C02D100F04CFEEB
:104CC0000446012C15D100BF502080F31188BFF39A
:104CD0004F8FBFF36F8F00BF4FF0FF301249086056
:104CE00001201249086000201149086000F070F8A6
:104CF00010E0601C08B1012000E0002050B900BFA6
:104D0000502080F31188BFF34F8FBFF36F8F00BF28
:104D100000BFFEE71CBD00007003002049444C4565
:104D200000000000813D00086C03002058030020B3
:104D30005003002002480068401C01490860704789
:104D4000740300201D48006818B101201C49086048
:104D500032E000201A4908601A480068B0FA80F072
:104D6000C0F11F0101EB8100174A52F8200008B181
:104D7000012000E0002050B900BF502080F31188CE
:104D8000BFF34F8FBFF36F8F00BF00BFFEE701EB94
:104D900081020D4B03EB820042685268426000F1D1
:104DA00008024368934202D14268526842604268F6
:104DB000D268064B1A6000BF7047000074030020E1
:104DC0006003002054030020F40600203C03002070
:104DD0001CB5474800684749884201D0012000E0DF
:104DE000002050B900BF502080F31188BFF34F8FCF
:104DF000BFF36F8F00BF00BFFEE73D4800683D492D
:104E0000491E884201D0012000E0002050B900BFB7
:104E1000502080F31188BFF34F8FBFF36F8F00BF17
:104E200000BFFEE73449084600780190FF200A469B
:104E300010700846007800909DF8000000F0F00027
:104E40009DF80020904201D1012000E0002050B9DF
:104E500000BF502080F31188BFF34F8FBFF36F8FD7
:104E600000BF00BFFEE79DF8000000F05000234A9D
:104E700010700720224A106009E021480068401E97
:104E80001F4A10609DF800004006000E00909DF83B
:104E9000000000F080008028EFD019480068000270
:104EA000174A10601046008800F4E0601060124A53
:104EB000019810700E482030006840F470000C49D2
:104EC000203108600846006840F070400860FFF735
:104ED00005FD00200B490860FBF780F90A480068CF
:104EE00040F0404008490860FBF768F900201CBD0D
:104EF00000ED00E071C20F4100E400E090030020EB
:104F0000940300208C03002034EF00E010B500BFB4
:104F1000502080F31188BFF34F8FBFF36F8F00BF16
:104F200000F044FB18B14FF080500449086000BF06
:104F3000002080F3118800BF10BD000004ED00E0E8
:104F40002DE9F84305460E4690460DB1012000E0DC
:104F5000002050B900BF502080F31188BFF34F8F5D
:104F6000BFF36F8F00BF00BFFEE70EB9002701E05F
:104F700005FB06F707F15000FFF70AFA044644B1B3
:104F800004F1500943464A46314628460094FEF74C
:104F90000BFF2046BDE8F8832DE9FF4782B00546A8
:104FA0000E461F464FF0000A2C4654B900BF502051
:104FB00080F31188BFF34F8FBFF36F8F00BF00BF27
:104FC000FEE70EB9206C08B9012000E0002050B9BE
:104FD00000BF502080F31188BFF34F8FBFF36F8F56
:104FE00000BF00BFFEE700F0CBFA08B9049808B98B
:104FF000012000E0002050B900BF502080F311884C
:10500000BFF34F8FBFF36F8F00BF00BFFEE700BF3E
:10501000FFF7D2FBD4F83890B9F1000F3DD0D4F8A7
:105020000C8031462046FEF7FDFDDFB9A9F10100F5
:10503000A063206810B9FFF749FA6060206908B9D9
:10504000012000E0002010BB04F1100000F0B6FBCE
:10505000E8B14FF0805040490860BFF34F8FBFF375
:105060006F8F14E0C4F80C80606A08B9012000E07A
:10507000002060B904F1240000F0A0FB38B14FF02B
:10508000805035490860BFF34F8FBFF36F8FFFF734
:10509000BDFB012006B0BDE8F087049818B9FFF702
:1050A000B5FB0020F6E7BAF1000F04D16846FFF720
:1050B000DFFD4FF0010AFFF7A9FBFFF73BFEFFF70B
:1050C0007BFB94F94400401C10B9002084F8440094
:1050D00094F94500401C10B9002084F84500FFF702
:1050E00095FB04A9684600F0D5F940BB2046FEF7C1
:1050F0005FFFF0B1206830B9FFF75EFB6068FFF733
:105100005FFDFFF783FB04F124000499FFF71CFD0A
:105110002046FFF7FEF800F09DFB00287FF478AFF3
:105120004FF080500C490860BFF34F8FBFF36F8F73
:105130006EE72046FFF7EDF800F08CFB68E72046AD
:10514000FFF7E7F800F086FB2046FEF731FF002866
:10515000EED000209EE7000004ED00E070B50546AB
:105160000E462C4654B900BF502080F31188BFF37F
:105170004F8FBFF36F8F00BF00BFFEE7FFF71CFB31
:10518000D4E90F12206801FB020060600020A063D8
:105190002068A060E06B401E226C216800FB0210BA
:1051A000E060FF2084F8440084F845009EB920693F
:1051B00008B9012000E00020A8B904F1100000F0B7
:1051C000FDFA80B14FF0805009490860BFF34F8F5E
:1051D000BFF36F8F07E004F11000FFF7B7FA04F197
:1051E0002400FFF7B3FAFFF711FB012070BD0000A8
:1051F00004ED00E02DE9FF4383B0064688461D46D6
:105200004FF00009344654B900BF502080F3118894
:10521000BFF34F8FBFF36F8F00BF00BFFEE7B8F142
:10522000000F01D1206C08B9012000E0002050B926
:1052300000BF502080F31188BFF34F8FBFF36F8FF3
:1052400000BF00BFFEE7022D02D1E06B012801D1B3
:10525000012000E0002050B900BF502080F31188E9
:10526000BFF34F8FBFF36F8F00BF00BFFEE700F0AB
:1052700087F908B9059808B9012000E0002050B965
:1052800000BF502080F31188BFF34F8FBFF36F8FA3
:1052900000BF00BFFEE700BFFFF78EFAA06BE16B17
:1052A000884201D3022D28D12A4641462046FEF7E6
:1052B000CEFC0746606A08B9012000E0002068B90A
:1052C00004F1240000F07AFA88B14FF0805032499E
:1052D0000860BFF34F8FBFF36F8F08E03FB14FF00F
:1052E00080502D490860BFF34F8FBFF36F8FFFF7DA
:1052F0008DFA012007B0BDE8F083059818B9FFF7D3
:1053000085FA0020F6E7B9F1000F04D101A8FFF7F4
:10531000AFFC4FF00109FFF779FAFFF70BFDFFF73C
:105320004BFA94F94400401C10B9002084F8440062
:1053300094F94500401C10B9002084F84500FFF79F
:1053400065FA05A901A800F0A5F8F0B92046FEF716
:105350003CFEA0B104F110000599FFF7F5FB2046D3
:10536000FEF7D7FF00F076FA002895D14FF0805075
:1053700009490860BFF34F8FBFF36F8F8CE720465A
:10538000FEF7C7FF00F066FA86E72046FEF7C1FF8A
:1053900000F060FA0020ADE704ED00E02DE9F05FD9
:1053A00007468A4690461E463C4654B900BF5020E8
:1053B00080F31188BFF34F8FBFF36F8F00BF00BF23
:1053C000FEE7BAF1000F01D1206C08B9012000E01E
:1053D000002050B900BF502080F31188BFF34F8FD9
:1053E000BFF36F8F00BF00BFFEE7022E02D1E06B5C
:1053F000012801D1012000E0002050B900BF502059
:1054000080F31188BFF34F8FBFF36F8F00BF00BFD2
:10541000FEE7FFF773FA00BF5021EFF3118081F32D
:105420001188BFF34F8FBFF36F8F00BF0546A06B8E
:10543000E16B884201D3022E23D194F945B0324664
:1054400051462046FEF703FC0BF1010088B9606A63
:1054500008B9012000E0002080B904F1240000F028
:10546000ADF958B1B8F1000F08D00120C8F800001C
:1054700004E00BF1010040B284F845004FF001094F
:1054800001E04FF0000900BF85F3118800BF4846D6
:10549000BDE8F09F70B504460D4654B900BF5020DA
:1054A00080F31188BFF34F8FBFF36F8F00BF00BF32
:1054B000FEE755B900BF502080F31188BFF34F8F2E
:1054C000BFF36F8F00BF00BFFEE7FFF775F912480B
:1054D00003682868401C08B9002619E00F492068B5
:1054E0000968884204D06068984201D801260FE01C
:1054F0006068181A2968884209D228686168591AB0
:10550000401A28602046FFF7B3FB002600E0012682
:10551000FFF77CF9304670BD500300206403002083
:105520002DE9FF4F85B0804689461746DDE912AB6D
:10553000B800FEF72DFF064656B15820FEF728FFAB
:1055400004460CB1266304E03046FFF77DF900E025
:1055500000247CB10020CDE900ABCDE902403A4601
:1055600049464046089BFEF734FC2046FEF79AFA6F
:10557000012501E04FF0FF35284609B0BDE8F08F66
:105580000549096809B9012005E00449096809B914
:10559000022000E000207047580300207403002020
:1055A0000149086870470000500300202DE9F041D0
:1055B0004FF0000844480068002877D1434800684D
:1055C000451C4248056015BB41480068006808B9A1
:1055D000012000E0002050B900BF502080F3118866
:1055E000BFF34F8FBFF36F8F00BF00BFFEE7384898
:1055F000076838480068364908603648076036480A
:105600000068401C34490860FEF7D6FD00BF3348EF
:10561000006885423CD300BF2D480068006808B987
:10562000012000E0002020B14FF0FF302B4908603E
:105630002DE027480068C068C4686668B54202D299
:105640002648066023E0201DFFF76CF8A06A18B119
:1056500004F11800FFF766F894F82C100120884038
:105660001F49096808431E490860E16A01EB81018E
:105670001C4A02EB8100211DFFF792F81A49E06AEB
:105680000968C96A8842C7D34FF00108C4E700BF60
:1056900015480068C06A00EB8000124951F82000EC
:1056A000012801D94FF0010805E0FFE70F48006825
:1056B000401C0E4908600E48006808B14FF0010810
:1056C0004046BDE8F0810000740300205003002034
:1056D0004003002044030020640300206C030020EA
:1056E00054030020F40600203C0300205C0300204B
:1056F0006003002070B505462C460026002D55D0CD
:105700002B480068844201D1012000E0002050B9FC
:1057100000BF502080F31188BFF34F8FBFF36F8F0E
:1057200000BF00BFFEE7E06C50B900BF502080F31F
:105730001188BFF34F8FBFF36F8F00BF00BFFEE72D
:10574000E06C401EE064A16CE06A88422ED0E06C00
:1057500060BB201DFEF7E6FF78B9E06A00EB800031
:10576000144951F8200040B994F82C1001208840C9
:1057700011490968814310480160A06CE062E06A49
:10578000C0F10500A06194F82C10012088400A495E
:105790000968084308490860E16A01EB8101054A8C
:1057A00002EB8100211DFEF7FBFF0126304670BD94
:1057B0003C030020F40600205403002070B5064688
:1057C000F068C46854B900BF502080F31188BFF35B
:1057D0004F8FBFF36F8F00BF00BFFEE704F11800CB
:1057E000FEF7A0FF15480068A8B9201DFEF79AFF34
:1057F00094F82C1001208840114909680843104989
:105800000860E16A01EB81010E4A02EB8100211D73
:10581000FEF7C6FF04E004F118010B48FEF7C0FFD5
:105820000A49E06A0968C96A884204D90125012049
:105830000749086000E00025284670BD7403002079
:1058400054030020F4060020800700203C030020C1
:105850006003002070B5002400263648006850B967
:1058600000BF502080F31188BFF34F8FBFF36F8FBD
:1058700000BF00BFFEE7FEF79FFF2E480068401EF6
:105880002C4908600846006800284FD12A48006863
:1058900000284BD024E02948C068C46804F11800EF
:1058A000FEF740FF201DFEF73DFF94F82C1001206D
:1058B000884023490968084321490860E16A01EBEF
:1058C0008101204A02EB8100211DFEF769FF1E497C
:1058D000E06A0968C96A884202D301201B4908604E
:1058E0001648006808B9012000E000200028D2D046
:1058F0000CB1FEF761FC1648056865B100BFFFF703
:1059000055FE10B10120114908606D1E002DF6D121
:1059100000200F4908600D48006838B101263007A3
:105920000C490860BFF34F8FBFF36F8FFEF76EFF18
:10593000304670BD740300204C0300208007002017
:1059400054030020F40600203C03002060030020E4
:105950005C03002004ED00E01CB50024FEF7FEF817
:105960000E48006858B10E48022100234FF482729D
:10597000CDE900100BA10D48FFF7D2FD044654B944
:1059800000BF502080F31188BFF34F8FBFF36F8F9C
:1059900000BF00BFFEE720461CBD000080030020C2
:1059A00084030020546D722053766300F94200088E
:1059B0002DE9FE4304460D4616461F46DDF82880B5
:1059C0004FF0000954B900BF502080F31188BFF395
:1059D0004F8FBFF36F8F00BF00BFFEE71448006812
:1059E00010B3009501960294062D15DAFFF7C8FD55
:1059F000022808D10023424669460D480068FFF797
:105A0000F9FB814610E000231A4669460848006801
:105A1000FFF7F0FB814607E000233A466946044859
:105A20000068FFF7BBFC81464846BDE8FE830000E6
:105A300080030020000000000000000000000000C3
:105A400000000000000000F800000000000000332B
:105A50003000000000100C06100C060000000000D2
:105A60000000000040C07840C0784000043F0404BB
:105A70003F040400007088FC08300000001820FF7C
:105A8000211E0000F008F000E018000000211C03B7
:105A90001E211E0000F00888700000001E21232433
:105AA0001927211010160E00000000000000000051
:105AB00000000000000000E01804020000000007E1
:105AC0001820400000020418E000000000402018E8
:105AD00007000000404080F0804040000202010FBB
